{
  "contractName": "UnoRewardGame",
  "abi": [
    {
      "anonymous": false,
      "inputs": [
        {
          "indexed": true,
          "internalType": "uint256",
          "name": "gameId",
          "type": "uint256"
        },
        {
          "indexed": true,
          "internalType": "address",
          "name": "player",
          "type": "address"
        },
        {
          "indexed": false,
          "internalType": "enum UnoRewardGame.CardColor",
          "name": "color",
          "type": "uint8"
        },
        {
          "indexed": false,
          "internalType": "enum UnoRewardGame.CardType",
          "name": "cardType",
          "type": "uint8"
        },
        {
          "indexed": false,
          "internalType": "uint8",
          "name": "value",
          "type": "uint8"
        }
      ],
      "name": "CardPlayed",
      "type": "event"
    },
    {
      "anonymous": false,
      "inputs": [
        {
          "indexed": true,
          "internalType": "uint256",
          "name": "gameId",
          "type": "uint256"
        },
        {
          "indexed": true,
          "internalType": "address",
          "name": "player",
          "type": "address"
        },
        {
          "indexed": false,
          "internalType": "enum UnoRewardGame.CardColor",
          "name": "color",
          "type": "uint8"
        }
      ],
      "name": "ColorChosen",
      "type": "event"
    },
    {
      "anonymous": false,
      "inputs": [
        {
          "indexed": true,
          "internalType": "uint256",
          "name": "gameId",
          "type": "uint256"
        },
        {
          "indexed": false,
          "internalType": "uint8",
          "name": "newDirection",
          "type": "uint8"
        }
      ],
      "name": "DirectionChanged",
      "type": "event"
    },
    {
      "anonymous": false,
      "inputs": [
        {
          "indexed": true,
          "internalType": "uint256",
          "name": "gameId",
          "type": "uint256"
        },
        {
          "indexed": true,
          "internalType": "address",
          "name": "creator",
          "type": "address"
        },
        {
          "indexed": false,
          "internalType": "uint256",
          "name": "entryFee",
          "type": "uint256"
        }
      ],
      "name": "GameCreated",
      "type": "event"
    },
    {
      "anonymous": false,
      "inputs": [
        {
          "indexed": true,
          "internalType": "uint256",
          "name": "gameId",
          "type": "uint256"
        },
        {
          "indexed": true,
          "internalType": "address",
          "name": "player",
          "type": "address"
        },
        {
          "indexed": false,
          "internalType": "uint256",
          "name": "penalty",
          "type": "uint256"
        }
      ],
      "name": "GameQuit",
      "type": "event"
    },
    {
      "anonymous": false,
      "inputs": [
        {
          "indexed": true,
          "internalType": "uint256",
          "name": "gameId",
          "type": "uint256"
        }
      ],
      "name": "GameStarted",
      "type": "event"
    },
    {
      "anonymous": false,
      "inputs": [
        {
          "indexed": true,
          "internalType": "uint256",
          "name": "gameId",
          "type": "uint256"
        },
        {
          "indexed": true,
          "internalType": "address",
          "name": "winner",
          "type": "address"
        },
        {
          "indexed": false,
          "internalType": "uint256",
          "name": "prize",
          "type": "uint256"
        }
      ],
      "name": "GameWon",
      "type": "event"
    },
    {
      "anonymous": false,
      "inputs": [
        {
          "indexed": true,
          "internalType": "uint256",
          "name": "gameId",
          "type": "uint256"
        },
        {
          "indexed": true,
          "internalType": "address",
          "name": "player",
          "type": "address"
        }
      ],
      "name": "PlayerDrawsCard",
      "type": "event"
    },
    {
      "anonymous": false,
      "inputs": [
        {
          "indexed": true,
          "internalType": "uint256",
          "name": "gameId",
          "type": "uint256"
        },
        {
          "indexed": true,
          "internalType": "address",
          "name": "player",
          "type": "address"
        }
      ],
      "name": "PlayerJoined",
      "type": "event"
    },
    {
      "anonymous": false,
      "inputs": [
        {
          "indexed": true,
          "internalType": "uint256",
          "name": "gameId",
          "type": "uint256"
        },
        {
          "indexed": true,
          "internalType": "address",
          "name": "player",
          "type": "address"
        }
      ],
      "name": "PlayerSkipped",
      "type": "event"
    },
    {
      "inputs": [],
      "name": "MIN_ENTRY_FEE",
      "outputs": [
        {
          "internalType": "uint256",
          "name": "",
          "type": "uint256"
        }
      ],
      "stateMutability": "view",
      "type": "function",
      "constant": true
    },
    {
      "inputs": [],
      "name": "QUIT_PENALTY",
      "outputs": [
        {
          "internalType": "uint256",
          "name": "",
          "type": "uint256"
        }
      ],
      "stateMutability": "view",
      "type": "function",
      "constant": true
    },
    {
      "inputs": [],
      "name": "WIN_MULTIPLIER",
      "outputs": [
        {
          "internalType": "uint256",
          "name": "",
          "type": "uint256"
        }
      ],
      "stateMutability": "view",
      "type": "function",
      "constant": true
    },
    {
      "inputs": [
        {
          "internalType": "uint256",
          "name": "",
          "type": "uint256"
        }
      ],
      "name": "games",
      "outputs": [
        {
          "internalType": "uint256",
          "name": "gameId",
          "type": "uint256"
        },
        {
          "internalType": "address",
          "name": "creator",
          "type": "address"
        },
        {
          "internalType": "uint256",
          "name": "totalPrize",
          "type": "uint256"
        },
        {
          "internalType": "bool",
          "name": "isActive",
          "type": "bool"
        },
        {
          "internalType": "bool",
          "name": "isFinished",
          "type": "bool"
        },
        {
          "internalType": "address",
          "name": "winner",
          "type": "address"
        },
        {
          "internalType": "uint8",
          "name": "currentPlayerIndex",
          "type": "uint8"
        },
        {
          "internalType": "uint8",
          "name": "playDirection",
          "type": "uint8"
        },
        {
          "internalType": "enum UnoRewardGame.CardColor",
          "name": "currentColor",
          "type": "uint8"
        },
        {
          "internalType": "uint8",
          "name": "currentValue",
          "type": "uint8"
        },
        {
          "internalType": "enum UnoRewardGame.CardType",
          "name": "currentType",
          "type": "uint8"
        },
        {
          "internalType": "uint8",
          "name": "playerCount",
          "type": "uint8"
        },
        {
          "internalType": "uint256",
          "name": "lastActionTime",
          "type": "uint256"
        }
      ],
      "stateMutability": "view",
      "type": "function",
      "constant": true
    },
    {
      "inputs": [
        {
          "internalType": "address",
          "name": "",
          "type": "address"
        }
      ],
      "name": "playerActiveGame",
      "outputs": [
        {
          "internalType": "uint256",
          "name": "",
          "type": "uint256"
        }
      ],
      "stateMutability": "view",
      "type": "function",
      "constant": true
    },
    {
      "stateMutability": "payable",
      "type": "receive",
      "payable": true
    },
    {
      "inputs": [],
      "name": "createGame",
      "outputs": [],
      "stateMutability": "payable",
      "type": "function",
      "payable": true
    },
    {
      "inputs": [
        {
          "internalType": "uint256",
          "name": "gameId",
          "type": "uint256"
        }
      ],
      "name": "joinGame",
      "outputs": [],
      "stateMutability": "payable",
      "type": "function",
      "payable": true
    },
    {
      "inputs": [
        {
          "internalType": "uint256",
          "name": "gameId",
          "type": "uint256"
        }
      ],
      "name": "startGame",
      "outputs": [],
      "stateMutability": "nonpayable",
      "type": "function"
    },
    {
      "inputs": [
        {
          "internalType": "uint256",
          "name": "gameId",
          "type": "uint256"
        },
        {
          "internalType": "enum UnoRewardGame.CardColor",
          "name": "color",
          "type": "uint8"
        },
        {
          "internalType": "enum UnoRewardGame.CardType",
          "name": "cardType",
          "type": "uint8"
        },
        {
          "internalType": "uint8",
          "name": "value",
          "type": "uint8"
        },
        {
          "internalType": "enum UnoRewardGame.CardColor",
          "name": "chosenColor",
          "type": "uint8"
        }
      ],
      "name": "playCard",
      "outputs": [],
      "stateMutability": "nonpayable",
      "type": "function"
    },
    {
      "inputs": [
        {
          "internalType": "uint256",
          "name": "gameId",
          "type": "uint256"
        }
      ],
      "name": "drawCard",
      "outputs": [],
      "stateMutability": "nonpayable",
      "type": "function"
    },
    {
      "inputs": [
        {
          "internalType": "uint256",
          "name": "gameId",
          "type": "uint256"
        }
      ],
      "name": "sayUno",
      "outputs": [],
      "stateMutability": "nonpayable",
      "type": "function"
    },
    {
      "inputs": [],
      "name": "quitGame",
      "outputs": [],
      "stateMutability": "nonpayable",
      "type": "function"
    },
    {
      "inputs": [
        {
          "internalType": "uint256",
          "name": "gameId",
          "type": "uint256"
        }
      ],
      "name": "getGameStatus",
      "outputs": [
        {
          "internalType": "bool",
          "name": "isActive",
          "type": "bool"
        },
        {
          "internalType": "bool",
          "name": "isFinished",
          "type": "bool"
        },
        {
          "internalType": "address",
          "name": "winner",
          "type": "address"
        },
        {
          "internalType": "uint8",
          "name": "currentPlayerIndex",
          "type": "uint8"
        },
        {
          "internalType": "uint8",
          "name": "playDirection",
          "type": "uint8"
        },
        {
          "internalType": "enum UnoRewardGame.CardColor",
          "name": "currentColor",
          "type": "uint8"
        },
        {
          "internalType": "enum UnoRewardGame.CardType",
          "name": "currentType",
          "type": "uint8"
        },
        {
          "internalType": "uint8",
          "name": "currentValue",
          "type": "uint8"
        },
        {
          "internalType": "uint8",
          "name": "playerCount",
          "type": "uint8"
        },
        {
          "internalType": "uint256",
          "name": "totalPrize",
          "type": "uint256"
        },
        {
          "internalType": "address",
          "name": "currentPlayerAddress",
          "type": "address"
        }
      ],
      "stateMutability": "view",
      "type": "function",
      "constant": true
    },
    {
      "inputs": [
        {
          "internalType": "uint256",
          "name": "gameId",
          "type": "uint256"
        },
        {
          "internalType": "uint8",
          "name": "playerIndex",
          "type": "uint8"
        }
      ],
      "name": "getPlayerInfo",
      "outputs": [
        {
          "internalType": "address",
          "name": "playerAddress",
          "type": "address"
        },
        {
          "internalType": "uint256",
          "name": "entryFee",
          "type": "uint256"
        },
        {
          "internalType": "bool",
          "name": "hasJoined",
          "type": "bool"
        },
        {
          "internalType": "bool",
          "name": "hasQuit",
          "type": "bool"
        }
      ],
      "stateMutability": "view",
      "type": "function",
      "constant": true
    },
    {
      "inputs": [
        {
          "internalType": "address",
          "name": "player",
          "type": "address"
        }
      ],
      "name": "getPlayerActiveGame",
      "outputs": [
        {
          "internalType": "uint256",
          "name": "",
          "type": "uint256"
        }
      ],
      "stateMutability": "view",
      "type": "function",
      "constant": true
    },
    {
      "inputs": [
        {
          "internalType": "uint256",
          "name": "gameId",
          "type": "uint256"
        }
      ],
      "name": "cleanupInactiveGame",
      "outputs": [],
      "stateMutability": "nonpayable",
      "type": "function"
    },
    {
      "inputs": [],
      "name": "withdraw",
      "outputs": [],
      "stateMutability": "nonpayable",
      "type": "function"
    }
  ],
  "bytecode": "0x608060405234801561001057600080fd5b50611e90806100206000396000f3fe6080604052600436106101015760003560e01c80637ad881e711610095578063ad7465d411610064578063ad7465d4146103e5578063b4a605121461041b578063b6aa4ed614610430578063e5ed1d5914610450578063efaa55a01461047057600080fd5b80637ad881e714610368578063818837591461037d57806382f674c914610398578063863df0a1146103b857600080fd5b80633ccfd60b116100d15780633ccfd60b146102d65780634057adb4146102eb5780635f48f76c1461033d5780637255d7291461036057600080fd5b80628510bc1461010d5780630f1bf4541461012f578063117a5b90146101f75780631fd234bc146102b657600080fd5b3661010857005b600080fd5b34801561011957600080fd5b5061012d610128366004611ab8565b610483565b005b34801561013b57600080fd5b506101d761014a366004611ab8565b60009081526001602090815260408083206003810154600282015460ff600160b01b83048116808852600490940190955292909420548385169561010086048516956201000081046001600160a01b03908116969495600160b81b8304861695600160c01b8404811695600160d01b8504821695600160c81b8604831695600160d81b9004909216931690565b6040516101ee9b9a99989796959493929190611b0b565b60405180910390f35b34801561020357600080fd5b5061029d610212366004611ab8565b6001602081905260009182526040909120805491810154600282015460038301546006909301546001600160a01b0392831693919260ff80841693610100810482169362010000820490931692600160b01b8204831692600160b81b8304811692600160c01b8104821692600160c81b8204831692600160d01b8304811692600160d81b900416908d565b6040516101ee9d9c9b9a99989796959493929190611b8b565b3480156102c257600080fd5b5061012d6102d1366004611c3e565b610604565b3480156102e257600080fd5b5061012d6109d1565b3480156102f757600080fd5b5061030b610306366004611ca2565b610a00565b604080516001600160a01b039095168552602085019390935290151591830191909152151560608201526080016101ee565b34801561034957600080fd5b50610352600281565b6040519081526020016101ee565b61012d610ab3565b34801561037457600080fd5b50610352603281565b34801561038957600080fd5b50610352662386f26fc1000081565b3480156103a457600080fd5b5061012d6103b3366004611ab8565b610ca0565b3480156103c457600080fd5b506103526103d3366004611cce565b60026020526000908152604090205481565b3480156103f157600080fd5b50610352610400366004611cce565b6001600160a01b031660009081526002602052604090205490565b34801561042757600080fd5b5061012d610d22565b34801561043c57600080fd5b5061012d61044b366004611ab8565b610fa6565b34801561045c57600080fd5b5061012d61046b366004611ab8565b6110c4565b61012d61047e366004611ab8565b61141f565b6000818152600160205260409020600381015460ff1680156104af57506003810154610100900460ff16155b6104d45760405162461bcd60e51b81526004016104cb90611cfe565b60405180910390fd5b60068101546104e590610708611d3d565b421161052c5760405162461bcd60e51b815260206004820152601660248201527511d85b59481b9bdd081d1a5b5959081bdd5d081e595d60521b60448201526064016104cb565b600080805b600384015460ff600160d81b909104811690821610156105cd5760ff808216600090815260048601602052604090206002015461010090041615801561058d575060ff8116600090815260048501602052604090206001015482105b156105bb5760ff811660009081526004850160205260409020600181015490546001600160a01b0316935091505b806105c581611d56565b915050610531565b506001600160a01b038216156105ec576105e78483611780565b6105fe565b60038301805461ffff19166101001790555b50505050565b6000858152600160205260409020600381015460ff16801561063057506003810154610100900460ff16155b61064c5760405162461bcd60e51b81526004016104cb90611cfe565b33600090815260026020526040902054861461067a5760405162461bcd60e51b81526004016104cb90611d75565b600381015460ff600160b01b9091041660009081526004820160205260409020546001600160a01b031633146106e25760405162461bcd60e51b815260206004820152600d60248201526c2737ba103cb7bab9103a3ab93760991b60448201526064016104cb565b600060048560058111156106f8576106f8611ad1565b14806107155750600585600581111561071357610713611ad1565b145b156107bc5750600381018054600191849160ff60c01b1916600160c01b83600481111561074457610744611ad1565b021790555060038201805486919060ff60d01b1916600160d01b83600581111561077057610770611ad1565b0217905550336001600160a01b0316877fa6caacd4d57bf3f04392aff66ae654445509a43621d7417f58cb0925d59bf52f856040516107af9190611d9f565b60405180910390a3610911565b6003820154600160c01b900460ff1660048111156107dc576107dc611ad1565b8660048111156107ee576107ee611ad1565b14806108265750600085600581111561080957610809611ad1565b1480156108265750600382015460ff858116600160c81b90920416145b8061087d57506003820154600160d01b900460ff16600581111561084c5761084c611ad1565b85600581111561085e5761085e611ad1565b14801561087d5750600085600581111561087a5761087a611ad1565b14155b156109115750600381018054600191879160ff60c01b1916600160c01b8360048111156108ac576108ac611ad1565b021790555060038201805486919060ff60d01b1916600160d01b8360058111156108d8576108d8611ad1565b021790555060008560058111156108f1576108f1611ad1565b036109115760038201805460ff60c81b1916600160c81b60ff8716021790555b806109525760405162461bcd60e51b8152602060048201526011602482015270496e76616c6964206361726420706c617960781b60448201526064016104cb565b61095c8286611957565b8360ff16606303610978576109718733611780565b50506109ca565b61098182611a6b565b426006830155604051339088907f5efef12176089486a87d1c3b96fcc5d6de26888aaf48113d0d462d104f2aa190906109bf908a908a908a90611dad565b60405180910390a350505b5050505050565b60405133904780156108fc02916000818181858888f193505050501580156109fd573d6000803e3d6000fd5b50565b600082815260016020526040812060038101548291829182919060ff600160d81b909104811690871610610a6d5760405162461bcd60e51b8152602060048201526014602482015273092dcecc2d8d2c840e0d8c2f2cae440d2dcc8caf60631b60448201526064016104cb565b60ff958616600090815260049190910160205260409020805460018201546002909201546001600160a01b03909116989197508087169661010090910416945092505050565b662386f26fc10000341015610b035760405162461bcd60e51b8152602060048201526016602482015275496e73756666696369656e7420656e7472792066656560501b60448201526064016104cb565b3360009081526002602052604090205415610b545760405162461bcd60e51b8152602060048201526011602482015270416c726561647920696e20612067616d6560781b60448201526064016104cb565b600080549080610b6383611dd9565b90915550506000805480825260016020818152604080852093845583830180546001600160a01b031990811633908117909255600386018054346002808a01829055600164010000000160b81b0161ffff65ff000000ffff60b01b0119909316929092179092554260068901558451608081018652848152808701838152818701898152606083018c81528c805260048c018a52888d20935184546001600160a01b039190911697169690961783559051828a0155519082018054945115156101000291151561ff00191661ffff19959095169490941717909255828852600587018552838820805460ff191690961790955586549352948190208290555192939290917f7dfb67e9ff596fca4da65c7eedb128cd1aac553af54b3c0cb733625a2480d8bd91610c9591815260200190565b60405180910390a350565b60008181526001602052604090206003015460ff168015610cd85750600081815260016020526040902060030154610100900460ff16155b610cf45760405162461bcd60e51b81526004016104cb90611cfe565b3360009081526002602052604090205481146109fd5760405162461bcd60e51b81526004016104cb90611d75565b3360009081526002602052604090205480610d715760405162461bcd60e51b815260206004820152600f60248201526e4e6f7420696e20616e792067616d6560881b60448201526064016104cb565b6000818152600160205260409020600381015460ff168015610d9d57506003810154610100900460ff16155b610db95760405162461bcd60e51b81526004016104cb90611cfe565b6000805b600383015460ff600160d81b90910481169082161015610e175760ff81166000908152600484016020526040902054336001600160a01b0390911603610e0557809150610e17565b80610e0f81611d56565b915050610dbd565b5060ff81166000818152600484016020818152604080842060028101805461ff001916610100179055338552600588018352908420805460ff191690559383525260019190910154606490610e6e90603290611df2565b610e789190611e1f565b33600090815260026020526040812055600384015490915060ff808416600160b01b9092041603610eac57610eac83611a6b565b600080805b600386015460ff600160d81b90910481169082161015610f2f5760ff8082166000908152600488016020526040902060020154610100900416610f1d5782610ef881611d56565b60ff831660009081526004890160205260409020549094506001600160a01b03169250505b80610f2781611d56565b915050610eb1565b508160ff16600103610f4a57610f458682611780565b610f67565b8160ff16600003610f675760038501805461ffff19166101001790555b604051838152339087907fdf10a8790b8ce2e9623a15773a51fa504be7bee9b7ed5a0cd58e73cc55ddbdc29060200160405180910390a3505050505050565b6000818152600160205260409020600381015460ff168015610fd257506003810154610100900460ff16155b610fee5760405162461bcd60e51b81526004016104cb90611cfe565b33600090815260026020526040902054821461101c5760405162461bcd60e51b81526004016104cb90611d75565b600381015460ff600160b01b9091041660009081526004820160205260409020546001600160a01b031633146110845760405162461bcd60e51b815260206004820152600d60248201526c2737ba103cb7bab9103a3ab93760991b60448201526064016104cb565b61108d81611a6b565b426006820155604051339083907f853e92a92270253dd70d9639277e015b983a8052578d7f2dd7ca18e9ff916b9c90600090a35050565b6000818152600160205260409020600381015460ff1680156110f057506003810154610100900460ff16155b6111355760405162461bcd60e51b815260206004820152601660248201527511d85b594818d85b9b9bdd081899481cdd185c9d195960521b60448201526064016104cb565b6003810154600160d81b900460ff1660021461118c5760405162461bcd60e51b81526020600482015260166024820152754e6565642065786163746c79203220706c617965727360501b60448201526064016104cb565b60018101546001600160a01b03163314806111b557506003810154600160d81b900460ff166002145b6112015760405162461bcd60e51b815260206004820152601b60248201527f4f6e6c792063726561746f722063616e2073746172742067616d65000000000060448201526064016104cb565b60008054604080514260208201526bffffffffffffffffffffffff193360601b169181019190915260548101919091526028906074016040516020818303038152906040528051906020012060001c61125a9190611e33565b9050600a8110156112ab5760038201805461ffff60c01b198116600160c81b60ff85160290811783556000929162ffffff60c01b191660ff60d01b1990911617600160d01b835b0217905550611387565b60148110156113145760038201805460ff60c01b1916600160c01b1790556112d4600a82611e47565b60038301805460ff92909216600160c81b0260ff60c81b1983168117825560009260ff60d01b1990911661ffff60c81b1990911617600160d01b836112a1565b601e81101561133d5760038201805460ff60c01b1916600160c11b1790556112d4601482611e47565b60038201805460ff60c01b1916600360c01b17905561135d601e82611e47565b60038301805460ff92909216600160c81b0260ff60d01b191661ffff60c81b199092169190911790555b42600683015560405183907f50ad08f58a27f2851d7e3a1b3a6a46b290f2ce677e99642d30ff639721e7779090600090a2600382015460405160009185917f5efef12176089486a87d1c3b96fcc5d6de26888aaf48113d0d462d104f2aa190916114129160ff600160c01b8304811692600160d01b8104821692600160c81b90910490911690611dad565b60405180910390a3505050565b60008181526001602052604090206003015460ff1680156114575750600081815260016020526040902060030154610100900460ff16155b6114985760405162461bcd60e51b815260206004820152601260248201527147616d65206e6f7420617661696c61626c6560701b60448201526064016104cb565b6000818152600160205260409020600301546002600160d81b90910460ff16106114f35760405162461bcd60e51b815260206004820152600c60248201526b11d85b59481a5cc8199d5b1b60a21b60448201526064016104cb565b600081815260016020908152604080832033845260050190915290205460ff16156115575760405162461bcd60e51b8152602060048201526014602482015273416c726561647920696e20746869732067616d6560601b60448201526064016104cb565b33600090815260026020526040902054156115b45760405162461bcd60e51b815260206004820152601760248201527f416c726561647920696e20616e6f746865722067616d6500000000000000000060448201526064016104cb565b6000818152600160208181526040808420848052600401909152909120015434101561161b5760405162461bcd60e51b8152602060048201526016602482015275496e73756666696369656e7420656e7472792066656560501b60448201526064016104cb565b600081815260016020818152604080842081516080810183523380825234828601818152838601888152606085018a8152600387015460ff600160d81b909104168b52600487018952878b20955186546001600160a01b03919091166001600160a01b03199091161786559151858a01555160029485018054925115156101000261ff00199215159290921661ffff199093169290921717905590875260058301909452918520805460ff191690941790935582018054929391929091906116e4908490611d3d565b9091555050600381018054600160d81b900460ff1690601b61170583611d56565b825460ff9182166101009390930a928302919092021990911617905550336000818152600260205260408082208590555184917f87969bc7faf902221a147b95ceba76e011c5efb0339a0a8ee7a2bb82d9cfbbd691a36003810154600119600160d81b90910460ff160161177c5761177c826110c4565b5050565b6000828152600160205260409020600381015460ff1680156117ac57506003810154610100900460ff16155b6117c85760405162461bcd60e51b81526004016104cb90611cfe565b6001600160a01b038216600090815260058201602052604090205460ff166118275760405162461bcd60e51b8152602060048201526012602482015271506c61796572206e6f7420696e2067616d6560701b60448201526064016104cb565b6003810180546001600160a01b03841662010000026001600160b01b03199091161761010017905560028082015460009190611864908290611df2565b61186e9190611e1f565b90504781111561187b5750475b60005b600383015460ff600160d81b909104811690821610156118d55760ff811660009081526004840160209081526040808320546001600160a01b031683526002909152812055806118cd81611d56565b91505061187e565b506040516001600160a01b0384169082156108fc029083906000818181858888f1935050505015801561190c573d6000803e3d6000fd5b50826001600160a01b0316847f9e59e9b0ec1755ccaf2fd4a7ed4ad5b0a678626e91834aee53ebdf1356bd390a8360405161194991815260200190565b60405180910390a350505050565b600181600581111561196b5761196b611ad1565b036119d15761197982611a6b565b6003820154600160b01b900460ff16600090815260048301602052604080822054845491516001600160a01b03909116927f01a1ea49fbaa3b367d6bf2b0d65ff9177a56f0058c2e09505c1f6517ce3c0beb91a35050565b60028160058111156119e5576119e5611ad1565b0361177c576003820154600160b81b900460ff16600114611a07576001611a0a565b60025b60038301805460ff60b81b1916600160b81b60ff938416810291909117918290558454604051919092049092168252907e6b1c0615c2f717d679eb0dd2751f913e0b31bd28247afcd9265b731825a2d39060200160405180910390a261177c825b6003810154600160b01b900460ff1615611a86576000611a89565b60015b60038201805460ff60b01b1916600160b01b60ff93841681029190911791829055900416600052600401602052565b600060208284031215611aca57600080fd5b5035919050565b634e487b7160e01b600052602160045260246000fd5b60058110611af757611af7611ad1565b9052565b60068110611af757611af7611ad1565b8b151581528a151560208201526001600160a01b038a8116604083015260ff8a8116606084015289166080830152610160820190611b4c60a084018a611ae7565b611b5960c0840189611afb565b60ff96871660e08401529490951661010082015261012081019290925290911661014090910152979650505050505050565b8d81526001600160a01b038d81166020830152604082018d90528b151560608301528a15156080830152891660a082015260ff881660c08201526101a0810160ff881660e0830152611be1610100830188611ae7565b60ff8616610120830152611bf9610140830186611afb565b60ff9390931661016082015261018001529b9a5050505050505050505050565b803560058110611c2857600080fd5b919050565b803560ff81168114611c2857600080fd5b600080600080600060a08688031215611c5657600080fd5b85359450611c6660208701611c19565b9350604086013560068110611c7a57600080fd5b9250611c8860608701611c2d565b9150611c9660808701611c19565b90509295509295909350565b60008060408385031215611cb557600080fd5b82359150611cc560208401611c2d565b90509250929050565b600060208284031215611ce057600080fd5b81356001600160a01b0381168114611cf757600080fd5b9392505050565b6020808252600f908201526e47616d65206e6f742061637469766560881b604082015260600190565b634e487b7160e01b600052601160045260246000fd5b80820180821115611d5057611d50611d27565b92915050565b600060ff821660ff8103611d6c57611d6c611d27565b60010192915050565b60208082526010908201526f4e6f7420696e20746869732067616d6560801b604082015260600190565b60208101611d508284611ae7565b60608101611dbb8286611ae7565b611dc86020830185611afb565b60ff83166040830152949350505050565b600060018201611deb57611deb611d27565b5060010190565b8082028115828204841417611d5057611d50611d27565b634e487b7160e01b600052601260045260246000fd5b600082611e2e57611e2e611e09565b500490565b600082611e4257611e42611e09565b500690565b81810381811115611d5057611d50611d2756fea2646970667358221220486f7b61cc730f8e39f553cb516ec867a1a013dacd49a8d1620d8e8d8c766dc864736f6c63430008110033",
  "immutableReferences": {},
  "source": "// SPDX-License-Identifier: MIT\r\npragma solidity ^0.8.0;\r\n\r\ncontract UnoRewardGame {\r\n    // Constants for the game\r\n    uint8 constant MAX_PLAYERS = 2;\r\n    uint256 public constant MIN_ENTRY_FEE = 0.01 ether;\r\n    uint256 public constant WIN_MULTIPLIER = 2; // Winner gets 2x entry fee\r\n    uint256 public constant QUIT_PENALTY = 50;  // 50% of entry fee lost when quitting\r\n    \r\n    // Enum for card colors\r\n    enum CardColor { Red, Blue, Green, Yellow, Wild }\r\n    \r\n    // Enum for card types\r\n    enum CardType { Number, Skip, Reverse, DrawTwo, Wild, WildDrawFour }\r\n    \r\n    // Card structure\r\n    struct Card {\r\n        CardColor color;\r\n        CardType cardType;\r\n        uint8 value; // Only used for number cards (0-9)\r\n    }\r\n    \r\n    // Player structure\r\n    struct Player {\r\n        address playerAddress;\r\n        uint256 entryFee;\r\n        bool hasJoined;\r\n        bool hasQuit;\r\n    }\r\n    \r\n    // Game structure\r\n    struct Game {\r\n        uint256 gameId;\r\n        address creator;\r\n        uint256 totalPrize;\r\n        bool isActive;\r\n        bool isFinished;\r\n        address winner;\r\n        uint8 currentPlayerIndex;\r\n        uint8 playDirection; // 1 for clockwise, 2 for counter-clockwise\r\n        CardColor currentColor;\r\n        uint8 currentValue;\r\n        CardType currentType;\r\n        uint8 playerCount;\r\n        mapping(uint8 => Player) players;\r\n        mapping(address => bool) playerInGame;\r\n        uint256 lastActionTime;\r\n    }\r\n    \r\n    // Game ID counter\r\n    uint256 private gameIdCounter;\r\n    \r\n    // Mapping of game ID to game\r\n    mapping(uint256 => Game) public games;\r\n    \r\n    // Mapping of player address to their active game\r\n    mapping(address => uint256) public playerActiveGame;\r\n    \r\n    // Events\r\n    event GameCreated(uint256 indexed gameId, address indexed creator, uint256 entryFee);\r\n    event PlayerJoined(uint256 indexed gameId, address indexed player);\r\n    event GameStarted(uint256 indexed gameId);\r\n    event CardPlayed(uint256 indexed gameId, address indexed player, CardColor color, CardType cardType, uint8 value);\r\n    event ColorChosen(uint256 indexed gameId, address indexed player, CardColor color);\r\n    event PlayerSkipped(uint256 indexed gameId, address indexed player);\r\n    event DirectionChanged(uint256 indexed gameId, uint8 newDirection);\r\n    event PlayerDrawsCard(uint256 indexed gameId, address indexed player);\r\n    event GameWon(uint256 indexed gameId, address indexed winner, uint256 prize);\r\n    event GameQuit(uint256 indexed gameId, address indexed player, uint256 penalty);\r\n    \r\n    // Create a new game\r\n    function createGame() external payable {\r\n        require(msg.value >= MIN_ENTRY_FEE, \"Insufficient entry fee\");\r\n        require(playerActiveGame[msg.sender] == 0, \"Already in a game\");\r\n        \r\n        gameIdCounter++;\r\n        \r\n        Game storage newGame = games[gameIdCounter];\r\n        newGame.gameId = gameIdCounter;\r\n        newGame.creator = msg.sender;\r\n        newGame.isActive = true;\r\n        newGame.isFinished = false;\r\n        newGame.totalPrize = msg.value;\r\n        newGame.currentPlayerIndex = 0;\r\n        newGame.playDirection = 1; // Start with clockwise\r\n        newGame.playerCount = 1;\r\n        newGame.lastActionTime = block.timestamp;\r\n        \r\n        // Add the creator as the first player\r\n        newGame.players[0] = Player({\r\n            playerAddress: msg.sender,\r\n            entryFee: msg.value,\r\n            hasJoined: true,\r\n            hasQuit: false\r\n        });\r\n        \r\n        newGame.playerInGame[msg.sender] = true;\r\n        playerActiveGame[msg.sender] = gameIdCounter;\r\n        \r\n        emit GameCreated(gameIdCounter, msg.sender, msg.value);\r\n    }\r\n    \r\n    // Join an existing game\r\n    function joinGame(uint256 gameId) external payable {\r\n        require(games[gameId].isActive && !games[gameId].isFinished, \"Game not available\");\r\n        require(games[gameId].playerCount < MAX_PLAYERS, \"Game is full\");\r\n        require(!games[gameId].playerInGame[msg.sender], \"Already in this game\");\r\n        require(playerActiveGame[msg.sender] == 0, \"Already in another game\");\r\n        require(msg.value >= games[gameId].players[0].entryFee, \"Insufficient entry fee\");\r\n        \r\n        Game storage game = games[gameId];\r\n        \r\n        // Add player to the game\r\n        game.players[game.playerCount] = Player({\r\n            playerAddress: msg.sender,\r\n            entryFee: msg.value,\r\n            hasJoined: true,\r\n            hasQuit: false\r\n        });\r\n        \r\n        game.playerInGame[msg.sender] = true;\r\n        game.totalPrize += msg.value;\r\n        game.playerCount++;\r\n        playerActiveGame[msg.sender] = gameId;\r\n        \r\n        emit PlayerJoined(gameId, msg.sender);\r\n        \r\n        // If game is full, automatically start it\r\n        if (game.playerCount == MAX_PLAYERS) {\r\n            startGame(gameId);\r\n        }\r\n    }\r\n    \r\n    // Start a game (can only be done by creator)\r\n    function startGame(uint256 gameId) public {\r\n        Game storage game = games[gameId];\r\n        \r\n        require(game.isActive && !game.isFinished, \"Game cannot be started\");\r\n        require(game.playerCount == 2, \"Need exactly 2 players\");\r\n        require(msg.sender == game.creator || game.playerCount == MAX_PLAYERS, \"Only creator can start game\");\r\n        \r\n        // Initialize with a random card (simplified)\r\n        uint256 randomValue = uint256(keccak256(abi.encodePacked(block.timestamp, msg.sender, gameIdCounter))) % 40;\r\n        \r\n        if (randomValue < 10) {\r\n            game.currentColor = CardColor.Red;\r\n            game.currentValue = uint8(randomValue);\r\n            game.currentType = CardType.Number;\r\n        } else if (randomValue < 20) {\r\n            game.currentColor = CardColor.Blue;\r\n            game.currentValue = uint8(randomValue - 10);\r\n            game.currentType = CardType.Number;\r\n        } else if (randomValue < 30) {\r\n            game.currentColor = CardColor.Green;\r\n            game.currentValue = uint8(randomValue - 20);\r\n            game.currentType = CardType.Number;\r\n        } else {\r\n            game.currentColor = CardColor.Yellow;\r\n            game.currentValue = uint8(randomValue - 30);\r\n            game.currentType = CardType.Number;\r\n        }\r\n        \r\n        game.lastActionTime = block.timestamp;\r\n        \r\n        emit GameStarted(gameId);\r\n        emit CardPlayed(gameId, address(0), game.currentColor, game.currentType, game.currentValue);\r\n    }\r\n    \r\n    // Play a card (simplified - we trust the client to enforce rules)\r\n    function playCard(uint256 gameId, CardColor color, CardType cardType, uint8 value, CardColor chosenColor) external {\r\n        Game storage game = games[gameId];\r\n        \r\n        require(game.isActive && !game.isFinished, \"Game not active\");\r\n        require(playerActiveGame[msg.sender] == gameId, \"Not in this game\");\r\n        require(game.players[game.currentPlayerIndex].playerAddress == msg.sender, \"Not your turn\");\r\n        \r\n        // Check if the card can be played (simplified validation)\r\n        bool validPlay = false;\r\n        \r\n        // Wild cards can always be played\r\n        if (cardType == CardType.Wild || cardType == CardType.WildDrawFour) {\r\n            validPlay = true;\r\n            game.currentColor = chosenColor;\r\n            game.currentType = cardType;\r\n            \r\n            emit ColorChosen(gameId, msg.sender, chosenColor);\r\n        } \r\n        // Match by color or value\r\n        else if (color == game.currentColor || \r\n                (cardType == CardType.Number && value == game.currentValue) ||\r\n                (cardType == game.currentType && cardType != CardType.Number)) {\r\n            validPlay = true;\r\n            game.currentColor = color;\r\n            game.currentType = cardType;\r\n            \r\n            if (cardType == CardType.Number) {\r\n                game.currentValue = value;\r\n            }\r\n        }\r\n        \r\n        require(validPlay, \"Invalid card play\");\r\n        \r\n        // Handle special card effects\r\n        handleSpecialCards(game, cardType);\r\n        \r\n        // Check for win condition (simplified - we trust client that player has no cards left)\r\n        if (value == 99) { // Special value to indicate player has no cards left\r\n            declareWinner(gameId, msg.sender);\r\n            return;\r\n        }\r\n        \r\n        // Advance to next player\r\n        advanceToNextPlayer(game);\r\n        \r\n        game.lastActionTime = block.timestamp;\r\n        \r\n        emit CardPlayed(gameId, msg.sender, color, cardType, value);\r\n    }\r\n    \r\n    // Handle special card effects\r\n    function handleSpecialCards(Game storage game, CardType cardType) private {\r\n        if (cardType == CardType.Skip) {\r\n            // Skip next player\r\n            advanceToNextPlayer(game);\r\n            emit PlayerSkipped(game.gameId, game.players[game.currentPlayerIndex].playerAddress);\r\n        } else if (cardType == CardType.Reverse) {\r\n            // Reverse direction\r\n            game.playDirection = game.playDirection == 1 ? 2 : 1;\r\n            emit DirectionChanged(game.gameId, game.playDirection);\r\n            \r\n            // In a 2-player game, reverse acts like skip\r\n            advanceToNextPlayer(game);\r\n        }\r\n        // For Draw Two and Wild Draw Four, we trust the client that the next player draws\r\n    }\r\n    \r\n    // Draw a card (simplified - we trust the client that player actually draws)\r\n    function drawCard(uint256 gameId) external {\r\n        Game storage game = games[gameId];\r\n        \r\n        require(game.isActive && !game.isFinished, \"Game not active\");\r\n        require(playerActiveGame[msg.sender] == gameId, \"Not in this game\");\r\n        require(game.players[game.currentPlayerIndex].playerAddress == msg.sender, \"Not your turn\");\r\n        \r\n        // Assume player draws and can't play\r\n        advanceToNextPlayer(game);\r\n        \r\n        game.lastActionTime = block.timestamp;\r\n        \r\n        emit PlayerDrawsCard(gameId, msg.sender);\r\n    }\r\n    \r\n    // Say \"UNO\" (simplified - only for event logging, no actual effect)\r\n    function sayUno(uint256 gameId) external {\r\n        require(games[gameId].isActive && !games[gameId].isFinished, \"Game not active\");\r\n        require(playerActiveGame[msg.sender] == gameId, \"Not in this game\");\r\n        // No actual effect, just for event logging if needed\r\n    }\r\n    \r\n    // Declare a winner\r\n    function declareWinner(uint256 gameId, address winner) private {\r\n        Game storage game = games[gameId];\r\n        \r\n        require(game.isActive && !game.isFinished, \"Game not active\");\r\n        require(game.playerInGame[winner], \"Player not in game\");\r\n        \r\n        game.isActive = false;\r\n        game.isFinished = true;\r\n        game.winner = winner;\r\n        \r\n        // Calculate and transfer prize\r\n        uint256 prize = game.totalPrize * WIN_MULTIPLIER / 2; // Simplifying prize distribution\r\n        if (prize > address(this).balance) {\r\n            prize = address(this).balance;\r\n        }\r\n        \r\n        // Clear player active game\r\n        for (uint8 i = 0; i < game.playerCount; i++) {\r\n            playerActiveGame[game.players[i].playerAddress] = 0;\r\n        }\r\n        \r\n        // Transfer prize to winner\r\n        payable(winner).transfer(prize);\r\n        \r\n        emit GameWon(gameId, winner, prize);\r\n    }\r\n    \r\n    // Quit a game\r\n    function quitGame() external {\r\n        uint256 gameId = playerActiveGame[msg.sender];\r\n        require(gameId > 0, \"Not in any game\");\r\n        \r\n        Game storage game = games[gameId];\r\n        require(game.isActive && !game.isFinished, \"Game not active\");\r\n        \r\n        // Find player index\r\n        uint8 playerIndex;\r\n        for (uint8 i = 0; i < game.playerCount; i++) {\r\n            if (game.players[i].playerAddress == msg.sender) {\r\n                playerIndex = i;\r\n                break;\r\n            }\r\n        }\r\n        \r\n        // Mark player as quit\r\n        game.players[playerIndex].hasQuit = true;\r\n        game.playerInGame[msg.sender] = false;\r\n        \r\n        // Calculate penalty\r\n        uint256 penalty = (game.players[playerIndex].entryFee * QUIT_PENALTY) / 100;\r\n        \r\n        // Clear player's active game\r\n        playerActiveGame[msg.sender] = 0;\r\n        \r\n        // If current player quits, advance to next\r\n        if (game.currentPlayerIndex == playerIndex) {\r\n            advanceToNextPlayer(game);\r\n        }\r\n        \r\n        // Check if only one player remains\r\n        uint8 remainingPlayers = 0;\r\n        address lastPlayer;\r\n        \r\n        for (uint8 i = 0; i < game.playerCount; i++) {\r\n            if (!game.players[i].hasQuit) {\r\n                remainingPlayers++;\r\n                lastPlayer = game.players[i].playerAddress;\r\n            }\r\n        }\r\n        \r\n        // If only one player remains, they win\r\n        if (remainingPlayers == 1) {\r\n            declareWinner(gameId, lastPlayer);\r\n        }\r\n        // If no players remain, end the game\r\n        else if (remainingPlayers == 0) {\r\n            game.isActive = false;\r\n            game.isFinished = true;\r\n        }\r\n        \r\n        emit GameQuit(gameId, msg.sender, penalty);\r\n    }\r\n    \r\n    // Move to the next player - simplified for 2 players\r\n    function advanceToNextPlayer(Game storage game) private {\r\n        // In a 2-player game, just toggle between 0 and 1\r\n        game.currentPlayerIndex = game.currentPlayerIndex == 0 ? 1 : 0;\r\n        \r\n        // Skip player if they have quit\r\n        if (game.players[game.currentPlayerIndex].hasQuit) {\r\n            // If the next player has quit, this means there's only one player left\r\n            // This case should be handled by the quitGame function\r\n        }\r\n    }\r\n    \r\n    // Get current game status\r\n    function getGameStatus(uint256 gameId) external view returns (\r\n        bool isActive,\r\n        bool isFinished,\r\n        address winner,\r\n        uint8 currentPlayerIndex,\r\n        uint8 playDirection,\r\n        CardColor currentColor,\r\n        CardType currentType,\r\n        uint8 currentValue,\r\n        uint8 playerCount,\r\n        uint256 totalPrize,\r\n        address currentPlayerAddress\r\n    ) {\r\n        Game storage game = games[gameId];\r\n        \r\n        return (\r\n            game.isActive,\r\n            game.isFinished,\r\n            game.winner,\r\n            game.currentPlayerIndex,\r\n            game.playDirection,\r\n            game.currentColor,\r\n            game.currentType,\r\n            game.currentValue,\r\n            game.playerCount,\r\n            game.totalPrize,\r\n            game.players[game.currentPlayerIndex].playerAddress\r\n        );\r\n    }\r\n    \r\n    // Get player information\r\n    function getPlayerInfo(uint256 gameId, uint8 playerIndex) external view returns (\r\n        address playerAddress,\r\n        uint256 entryFee,\r\n        bool hasJoined,\r\n        bool hasQuit\r\n    ) {\r\n        Game storage game = games[gameId];\r\n        require(playerIndex < game.playerCount, \"Invalid player index\");\r\n        \r\n        Player storage player = game.players[playerIndex];\r\n        \r\n        return (\r\n            player.playerAddress,\r\n            player.entryFee,\r\n            player.hasJoined,\r\n            player.hasQuit\r\n        );\r\n    }\r\n    \r\n    // Get player's active game\r\n    function getPlayerActiveGame(address player) external view returns (uint256) {\r\n        return playerActiveGame[player];\r\n    }\r\n    \r\n    // Timeouts for inactive games (30 minutes)\r\n    function cleanupInactiveGame(uint256 gameId) external {\r\n        Game storage game = games[gameId];\r\n        \r\n        require(game.isActive && !game.isFinished, \"Game not active\");\r\n        require(block.timestamp > game.lastActionTime + 30 minutes, \"Game not timed out yet\");\r\n        \r\n        // Find player with most tokens who hasn't quit\r\n        address bestPlayer;\r\n        uint256 highestEntryFee = 0;\r\n        \r\n        for (uint8 i = 0; i < game.playerCount; i++) {\r\n            if (!game.players[i].hasQuit && game.players[i].entryFee > highestEntryFee) {\r\n                highestEntryFee = game.players[i].entryFee;\r\n                bestPlayer = game.players[i].playerAddress;\r\n            }\r\n        }\r\n        \r\n        // If we found someone, they win, otherwise just close the game\r\n        if (bestPlayer != address(0)) {\r\n            declareWinner(gameId, bestPlayer);\r\n        } else {\r\n            game.isActive = false;\r\n            game.isFinished = true;\r\n        }\r\n    }\r\n    \r\n    // Withdraw contract balance (admin function)\r\n    function withdraw() external {\r\n        payable(msg.sender).transfer(address(this).balance);\r\n    }\r\n    \r\n    // Fallback function to receive Ether\r\n    receive() external payable {}\r\n}",
  "sourcePath": "C:\\Users\\Pranshu Saraswat\\OneDrive\\Desktop\\BDA Project 3\\Card\\contracts\\BlockChainUNO.sol",
  "compiler": {
    "name": "solc",
    "version": "0.8.17+commit.8df45f5f.Emscripten.clang"
  },
  "schemaVersion": "3.4.16",
  "updatedAt": "2025-05-15T05:43:18.837Z",
  "networkType": "ethereum",
  "devdoc": {
    "kind": "dev",
    "methods": {},
    "version": 1
  },
  "userdoc": {
    "kind": "user",
    "methods": {},
    "version": 1
  }
}